{
  "contractName": "Token",
  "abi": [
    {
      "inputs": [
        {
          "internalType": "address",
          "name": "_router",
          "type": "address"
        }
      ],
      "stateMutability": "nonpayable",
      "type": "constructor"
    },
    {
      "anonymous": false,
      "inputs": [
        {
          "indexed": false,
          "internalType": "string",
          "name": "",
          "type": "string"
        }
      ],
      "name": "AddLiq",
      "type": "event"
    },
    {
      "anonymous": false,
      "inputs": [
        {
          "indexed": true,
          "internalType": "address",
          "name": "owner",
          "type": "address"
        },
        {
          "indexed": true,
          "internalType": "address",
          "name": "spender",
          "type": "address"
        },
        {
          "indexed": false,
          "internalType": "uint256",
          "name": "value",
          "type": "uint256"
        }
      ],
      "name": "Approval",
      "type": "event"
    },
    {
      "anonymous": false,
      "inputs": [
        {
          "indexed": true,
          "internalType": "address",
          "name": "previousOwner",
          "type": "address"
        },
        {
          "indexed": true,
          "internalType": "address",
          "name": "newOwner",
          "type": "address"
        }
      ],
      "name": "OwnershipTransferred",
      "type": "event"
    },
    {
      "anonymous": false,
      "inputs": [
        {
          "indexed": false,
          "internalType": "string",
          "name": "",
          "type": "string"
        }
      ],
      "name": "SwapForBNB",
      "type": "event"
    },
    {
      "anonymous": false,
      "inputs": [],
      "name": "TaxRatesChanged",
      "type": "event"
    },
    {
      "anonymous": false,
      "inputs": [
        {
          "indexed": true,
          "internalType": "address",
          "name": "from",
          "type": "address"
        },
        {
          "indexed": true,
          "internalType": "address",
          "name": "to",
          "type": "address"
        },
        {
          "indexed": false,
          "internalType": "uint256",
          "name": "value",
          "type": "uint256"
        }
      ],
      "name": "Transfer",
      "type": "event"
    },
    {
      "inputs": [],
      "name": "LP_recipient",
      "outputs": [
        {
          "internalType": "address",
          "name": "",
          "type": "address"
        }
      ],
      "stateMutability": "view",
      "type": "function"
    },
    {
      "inputs": [],
      "name": "dev_wallet",
      "outputs": [
        {
          "internalType": "address",
          "name": "",
          "type": "address"
        }
      ],
      "stateMutability": "view",
      "type": "function"
    },
    {
      "inputs": [],
      "name": "owner",
      "outputs": [
        {
          "internalType": "address",
          "name": "",
          "type": "address"
        }
      ],
      "stateMutability": "view",
      "type": "function"
    },
    {
      "inputs": [],
      "name": "pair",
      "outputs": [
        {
          "internalType": "contract IUniswapV2Pair",
          "name": "",
          "type": "address"
        }
      ],
      "stateMutability": "view",
      "type": "function"
    },
    {
      "inputs": [],
      "name": "renounceOwnership",
      "outputs": [],
      "stateMutability": "nonpayable",
      "type": "function"
    },
    {
      "inputs": [],
      "name": "router",
      "outputs": [
        {
          "internalType": "contract IUniswapV2Router02",
          "name": "",
          "type": "address"
        }
      ],
      "stateMutability": "view",
      "type": "function"
    },
    {
      "inputs": [],
      "name": "swap_for_liquidity_threshold",
      "outputs": [
        {
          "internalType": "uint256",
          "name": "",
          "type": "uint256"
        }
      ],
      "stateMutability": "view",
      "type": "function"
    },
    {
      "inputs": [
        {
          "internalType": "address",
          "name": "newOwner",
          "type": "address"
        }
      ],
      "name": "transferOwnership",
      "outputs": [],
      "stateMutability": "nonpayable",
      "type": "function"
    },
    {
      "stateMutability": "payable",
      "type": "receive"
    },
    {
      "inputs": [],
      "name": "decimals",
      "outputs": [
        {
          "internalType": "uint256",
          "name": "",
          "type": "uint256"
        }
      ],
      "stateMutability": "view",
      "type": "function"
    },
    {
      "inputs": [],
      "name": "name",
      "outputs": [
        {
          "internalType": "string",
          "name": "",
          "type": "string"
        }
      ],
      "stateMutability": "view",
      "type": "function"
    },
    {
      "inputs": [],
      "name": "symbol",
      "outputs": [
        {
          "internalType": "string",
          "name": "",
          "type": "string"
        }
      ],
      "stateMutability": "view",
      "type": "function"
    },
    {
      "inputs": [],
      "name": "totalSupply",
      "outputs": [
        {
          "internalType": "uint256",
          "name": "",
          "type": "uint256"
        }
      ],
      "stateMutability": "view",
      "type": "function"
    },
    {
      "inputs": [
        {
          "internalType": "address",
          "name": "account",
          "type": "address"
        }
      ],
      "name": "balanceOf",
      "outputs": [
        {
          "internalType": "uint256",
          "name": "",
          "type": "uint256"
        }
      ],
      "stateMutability": "view",
      "type": "function"
    },
    {
      "inputs": [
        {
          "internalType": "address",
          "name": "recipient",
          "type": "address"
        },
        {
          "internalType": "uint256",
          "name": "amount",
          "type": "uint256"
        }
      ],
      "name": "transfer",
      "outputs": [
        {
          "internalType": "bool",
          "name": "",
          "type": "bool"
        }
      ],
      "stateMutability": "nonpayable",
      "type": "function"
    },
    {
      "inputs": [
        {
          "internalType": "address",
          "name": "owner",
          "type": "address"
        },
        {
          "internalType": "address",
          "name": "spender",
          "type": "address"
        }
      ],
      "name": "allowance",
      "outputs": [
        {
          "internalType": "uint256",
          "name": "",
          "type": "uint256"
        }
      ],
      "stateMutability": "view",
      "type": "function"
    },
    {
      "inputs": [
        {
          "internalType": "address",
          "name": "spender",
          "type": "address"
        },
        {
          "internalType": "uint256",
          "name": "amount",
          "type": "uint256"
        }
      ],
      "name": "approve",
      "outputs": [
        {
          "internalType": "bool",
          "name": "",
          "type": "bool"
        }
      ],
      "stateMutability": "nonpayable",
      "type": "function"
    },
    {
      "inputs": [
        {
          "internalType": "address",
          "name": "sender",
          "type": "address"
        },
        {
          "internalType": "address",
          "name": "recipient",
          "type": "address"
        },
        {
          "internalType": "uint256",
          "name": "amount",
          "type": "uint256"
        }
      ],
      "name": "transferFrom",
      "outputs": [
        {
          "internalType": "bool",
          "name": "",
          "type": "bool"
        }
      ],
      "stateMutability": "nonpayable",
      "type": "function"
    },
    {
      "inputs": [
        {
          "internalType": "address",
          "name": "spender",
          "type": "address"
        },
        {
          "internalType": "uint256",
          "name": "addedValue",
          "type": "uint256"
        }
      ],
      "name": "increaseAllowance",
      "outputs": [
        {
          "internalType": "bool",
          "name": "",
          "type": "bool"
        }
      ],
      "stateMutability": "nonpayable",
      "type": "function"
    },
    {
      "inputs": [
        {
          "internalType": "address",
          "name": "spender",
          "type": "address"
        },
        {
          "internalType": "uint256",
          "name": "subtractedValue",
          "type": "uint256"
        }
      ],
      "name": "decreaseAllowance",
      "outputs": [
        {
          "internalType": "bool",
          "name": "",
          "type": "bool"
        }
      ],
      "stateMutability": "nonpayable",
      "type": "function"
    },
    {
      "inputs": [],
      "name": "retrieveBNB",
      "outputs": [],
      "stateMutability": "nonpayable",
      "type": "function"
    },
    {
      "inputs": [
        {
          "internalType": "address",
          "name": "adr",
          "type": "address"
        }
      ],
      "name": "excludeFromTaxes",
      "outputs": [],
      "stateMutability": "nonpayable",
      "type": "function"
    },
    {
      "inputs": [
        {
          "internalType": "address",
          "name": "adr",
          "type": "address"
        }
      ],
      "name": "includeInTaxes",
      "outputs": [],
      "stateMutability": "nonpayable",
      "type": "function"
    },
    {
      "inputs": [
        {
          "internalType": "address",
          "name": "adr",
          "type": "address"
        }
      ],
      "name": "isExcluded",
      "outputs": [
        {
          "internalType": "bool",
          "name": "",
          "type": "bool"
        }
      ],
      "stateMutability": "view",
      "type": "function"
    },
    {
      "inputs": [
        {
          "internalType": "address",
          "name": "_LP_recipient",
          "type": "address"
        }
      ],
      "name": "setLPRecipient",
      "outputs": [],
      "stateMutability": "nonpayable",
      "type": "function"
    },
    {
      "inputs": [
        {
          "internalType": "address",
          "name": "_devWallet",
          "type": "address"
        }
      ],
      "name": "setDevWallet",
      "outputs": [],
      "stateMutability": "nonpayable",
      "type": "function"
    },
    {
      "inputs": [
        {
          "internalType": "uint128",
          "name": "threshold_in_token",
          "type": "uint128"
        }
      ],
      "name": "setSwapFor_Liq_Threshold",
      "outputs": [],
      "stateMutability": "nonpayable",
      "type": "function"
    }
  ],
  "bytecode": "0x608060405260048054600960ff199091161761ff0019166103001762ff00001916620600001763ff000000191663090000001790819055620000469060ff16600a62000544565b6200005a90670de0b6b3a76400006200062f565b600555600454620000709060ff16600a62000544565b6200008390662386f26fc100006200062f565b600655604080518082019091526005808252642a37b5b2b760d91b6020909201918252620000b491600891620003fe565b5060408051808201909152601a8082527f58585858585858585858585858585858585858585858585858580000000000006020909201918252620000fb91600991620003fe565b503480156200010957600080fd5b50604051620020fe380380620020fe8339810160408190526200012c91620004a4565b600062000138620003fa565b600080546001600160a01b0319166001600160a01b0383169081178255604051929350917f8be0079c531659141344cd1fd0a4f28419497f9722a3daafe3b4186f6b6457e0908290a350600d80546001600160a01b0319166001600160a01b0383811691909117918290556040805163c45a015560e01b815290516000939092169163c45a015591600480820192602092909190829003018186803b158015620001e157600080fd5b505afa158015620001f6573d6000803e3d6000fd5b505050506040513d601f19601f820116820180604052508101906200021c9190620004a4565b9050806001600160a01b031663c9c6539630600d60009054906101000a90046001600160a01b03166001600160a01b031663ad5c46486040518163ffffffff1660e01b815260040160206040518083038186803b1580156200027d57600080fd5b505afa15801562000292573d6000803e3d6000fd5b505050506040513d601f19601f82011682018060405250810190620002b89190620004a4565b6040518363ffffffff1660e01b8152600401620002d7929190620004d4565b602060405180830381600087803b158015620002f257600080fd5b505af115801562000307573d6000803e3d6000fd5b505050506040513d601f19601f820116820180604052508101906200032d9190620004a4565b600c80546001600160a01b039283166001600160a01b031991821617909155600a8054821661dead908117909155600b8054909216178155336000818152600360209081526040808320805460ff19908116600190811790925530855282852080548216831790559554909616835280832080549095168617909455600554838352949052828120849055915190927fddf252ad1be2c89b69c2b068fc378daa952ba7f163c4a11628f55a4df523b3ef91620003ea9190620004ee565b60405180910390a35050620006a4565b3390565b8280546200040c9062000651565b90600052602060002090601f0160209004810192826200043057600085556200047b565b82601f106200044b57805160ff19168380011785556200047b565b828001600101855582156200047b579182015b828111156200047b5782518255916020019190600101906200045e565b50620004899291506200048d565b5090565b5b808211156200048957600081556001016200048e565b600060208284031215620004b6578081fd5b81516001600160a01b0381168114620004cd578182fd5b9392505050565b6001600160a01b0392831681529116602082015260400190565b90815260200190565b80825b60018086116200050b57506200053b565b8187048211156200052057620005206200068e565b808616156200052e57918102915b9490941c938002620004fa565b94509492505050565b6000620004cd60001960ff8516846000826200056357506001620004cd565b816200057257506000620004cd565b81600181146200058b57600281146200059657620005ca565b6001915050620004cd565b60ff841115620005aa57620005aa6200068e565b6001841b915084821115620005c357620005c36200068e565b50620004cd565b5060208310610133831016604e8410600b841016171562000602575081810a83811115620005fc57620005fc6200068e565b620004cd565b620006118484846001620004f7565b8086048211156200062657620006266200068e565b02949350505050565b60008160001904831182151516156200064c576200064c6200068e565b500290565b6002810460018216806200066657607f821691505b602082108114156200068857634e487b7160e01b600052602260045260246000fd5b50919050565b634e487b7160e01b600052601160045260246000fd5b611a4a80620006b46000396000f3fe6080604052600436106101855760003560e01c80637940eca8116100d1578063a8aa1b311161008a578063dd62ed3e11610064578063dd62ed3e14610417578063ed995c6014610437578063f2fde38b14610457578063f887ea40146104775761018c565b8063a8aa1b31146103c2578063a9059cbb146103d7578063cba0e996146103f75761018c565b80637940eca8146103235780638ac6e33a146103385780638da5cb5b1461035857806395d89b411461036d578063983e915814610382578063a457c2d7146103a25761018c565b806323b872dd1161013e57806333c308fb1161011857806333c308fb146102b957806339509351146102ce57806370a08231146102ee578063715018a61461030e5761018c565b806323b872dd14610262578063313ce5671461028257806332fb782b146102975761018c565b806306fdde0314610191578063095ea7b3146101bc578063131e00b7146101e957806318160ddd1461020b5780631f53ac021461022d578063222b03f61461024d5761018c565b3661018c57005b600080fd5b34801561019d57600080fd5b506101a661048c565b6040516101b39190611498565b60405180910390f35b3480156101c857600080fd5b506101dc6101d73660046113a3565b61051e565b6040516101b3919061148d565b3480156101f557600080fd5b506102096102043660046112f3565b61053b565b005b34801561021757600080fd5b506102206105e0565b6040516101b3919061177d565b34801561023957600080fd5b506102096102483660046112f3565b6105e6565b34801561025957600080fd5b50610220610647565b34801561026e57600080fd5b506101dc61027d366004611363565b61064d565b34801561028e57600080fd5b506102206106e6565b3480156102a357600080fd5b506102ac6106ef565b6040516101b3919061143e565b3480156102c557600080fd5b506102ac6106fe565b3480156102da57600080fd5b506101dc6102e93660046113a3565b61070d565b3480156102fa57600080fd5b506102206103093660046112f3565b61075c565b34801561031a57600080fd5b5061020961077b565b34801561032f57600080fd5b50610209610804565b34801561034457600080fd5b506102096103533660046113ce565b6108cc565b34801561036457600080fd5b506102ac610935565b34801561037957600080fd5b506101a6610944565b34801561038e57600080fd5b5061020961039d3660046112f3565b610953565b3480156103ae57600080fd5b506101dc6103bd3660046113a3565b6109eb565b3480156103ce57600080fd5b506102ac610a66565b3480156103e357600080fd5b506101dc6103f23660046113a3565b610a75565b34801561040357600080fd5b506101dc6104123660046112f3565b610a89565b34801561042357600080fd5b5061022061043236600461132b565b610aa7565b34801561044357600080fd5b506102096104523660046112f3565b610ad2565b34801561046357600080fd5b506102096104723660046112f3565b610b33565b34801561048357600080fd5b506102ac610bf3565b60606008805461049b906119ab565b80601f01602080910402602001604051908101604052809291908181526020018280546104c7906119ab565b80156105145780601f106104e957610100808354040283529160200191610514565b820191906000526020600020905b8154815290600101906020018083116104f757829003601f168201915b5050505050905090565b600061053261052b610c02565b8484610c06565b50600192915050565b610543610c02565b6001600160a01b0316610554610935565b6001600160a01b0316146105835760405162461bcd60e51b815260040161057a9061162c565b60405180910390fd5b6001600160a01b03811660009081526003602052604090205460ff16156105bc5760405162461bcd60e51b815260040161057a9061170e565b6001600160a01b03166000908152600360205260409020805460ff19166001179055565b60055490565b6105ee610c02565b6001600160a01b03166105ff610935565b6001600160a01b0316146106255760405162461bcd60e51b815260040161057a9061162c565b600b80546001600160a01b0319166001600160a01b0392909216919091179055565b60065481565b600061065a848484610cba565b6001600160a01b03841660009081526002602052604081208161067b610c02565b6001600160a01b03166001600160a01b03168152602001908152602001600020549050828110156106be5760405162461bcd60e51b815260040161057a906115e4565b6106d9856106ca610c02565b6106d48685611964565b610c06565b60019150505b9392505050565b60045460ff1690565b600a546001600160a01b031681565b600b546001600160a01b031681565b600061053261071a610c02565b848460026000610728610c02565b6001600160a01b03908116825260208083019390935260409182016000908120918b16815292529020546106d491906117f6565b6001600160a01b0381166000908152600160205260409020545b919050565b610783610c02565b6001600160a01b0316610794610935565b6001600160a01b0316146107ba5760405162461bcd60e51b815260040161057a9061162c565b600080546040516001600160a01b03909116907f8be0079c531659141344cd1fd0a4f28419497f9722a3daafe3b4186f6b6457e0908390a3600080546001600160a01b0319169055565b61080c610c02565b6001600160a01b031661081d610935565b6001600160a01b0316146108435760405162461bcd60e51b815260040161057a9061162c565b6040805160008082526020820192839052309290918391479161086591611422565b60006040518083038185875af1925050503d80600081146108a2576040519150601f19603f3d011682016040523d82523d6000602084013e6108a7565b606091505b50509050806108c85760405162461bcd60e51b815260040161057a906116cb565b5050565b6108d4610c02565b6001600160a01b03166108e5610935565b6001600160a01b03161461090b5760405162461bcd60e51b815260040161057a9061162c565b60045461091c9060ff16600a611874565b61092f906001600160801b038316611945565b60065550565b6000546001600160a01b031690565b60606009805461049b906119ab565b61095b610c02565b6001600160a01b031661096c610935565b6001600160a01b0316146109925760405162461bcd60e51b815260040161057a9061162c565b6001600160a01b03811660009081526003602052604090205460ff166109ca5760405162461bcd60e51b815260040161057a906115bd565b6001600160a01b03166000908152600360205260409020805460ff19169055565b600080600260006109fa610c02565b6001600160a01b0390811682526020808301939093526040918201600090812091881681529252902054905082811015610a465760405162461bcd60e51b815260040161057a90611738565b610a5c610a51610c02565b856106d48685611964565b5060019392505050565b600c546001600160a01b031681565b6000610532610a82610c02565b8484610cba565b6001600160a01b031660009081526003602052604090205460ff1690565b6001600160a01b03918216600090815260026020908152604080832093909416825291909152205490565b610ada610c02565b6001600160a01b0316610aeb610935565b6001600160a01b031614610b115760405162461bcd60e51b815260040161057a9061162c565b600a80546001600160a01b0319166001600160a01b0392909216919091179055565b610b3b610c02565b6001600160a01b0316610b4c610935565b6001600160a01b031614610b725760405162461bcd60e51b815260040161057a9061162c565b6001600160a01b038116610b985760405162461bcd60e51b815260040161057a906114cb565b600080546040516001600160a01b03808516939216917f8be0079c531659141344cd1fd0a4f28419497f9722a3daafe3b4186f6b6457e091a3600080546001600160a01b0319166001600160a01b0392909216919091179055565b600d546001600160a01b031681565b3390565b6001600160a01b038316610c2c5760405162461bcd60e51b815260040161057a90611687565b6001600160a01b038216610c525760405162461bcd60e51b815260040161057a90611511565b6001600160a01b0380841660008181526002602090815260408083209487168084529490915290819020849055517f8c5be1e5ebec7d5bd14f71427d1e84f3dd0314c0f7b2291e5b200ac8c7c3b92590610cad90859061177d565b60405180910390a3505050565b6001600160a01b03831660009081526001602052604090205481811015610cf35760405162461bcd60e51b815260040161057a90611553565b6001600160a01b038416600090815260036020526040812054819060ff16158015610d3757506001600160a01b03851660009081526003602052604090205460ff16155b15610dbf57600c546001600160a01b03868116911614610d7d57600454610d7590606490610d6f90879062010000900460ff16610fa6565b90610fb2565b905080610d9c565b600454610d9c90606490610d6f9087906301000000900460ff16610fa6565b600454909150610dbc90606490610d6f908790610100900460ff16610fa6565b91505b610dc98385610fbe565b6001600160a01b038716600090815260016020526040808220929092553081529081208054849290610dfc9084906117f6565b9091555050600b546001600160a01b031660009081526001602052604081208054839290610e2b9084906117f6565b90915550610e45905082610e3f8684610fbe565b90610fbe565b6001600160a01b03861660009081526001602052604081208054909190610e6d9084906117f6565b9091555050600654610e7e3061075c565b10158015610e8f575060075460ff16155b15610ebe576007805460ff19166001179055610eb2610ead3061075c565b610fca565b506007805460ff191690555b846001600160a01b0316866001600160a01b03167fddf252ad1be2c89b69c2b068fc378daa952ba7f163c4a11628f55a4df523b3ef86604051610f01919061177d565b60405180910390a3306001600160a01b0316866001600160a01b03167fddf252ad1be2c89b69c2b068fc378daa952ba7f163c4a11628f55a4df523b3ef84604051610f4c919061177d565b60405180910390a3600b546040516001600160a01b03918216918816907fddf252ad1be2c89b69c2b068fc378daa952ba7f163c4a11628f55a4df523b3ef90610f9690859061177d565b60405180910390a3505050505050565b60006106df8284611945565b60006106df828461180e565b60006106df8284611964565b60408051600280825260608201835260009283929190602083019080368337019050509050308160008151811061101157634e487b7160e01b600052603260045260246000fd5b6001600160a01b03928316602091820292909201810191909152600d54604080516315ab88c960e31b81529051919093169263ad5c4648926004808301939192829003018186803b15801561106557600080fd5b505afa158015611079573d6000803e3d6000fd5b505050506040513d601f19601f8201168201806040525081019061109d919061130f565b816001815181106110be57634e487b7160e01b600052603260045260246000fd5b6001600160a01b039283166020918202929092010152600d5484916110e591309116610aa7565b101561115957306000818152600260209081526040808320600d80546001600160a01b03908116865291909352928190206000199081905591549051921692917f8c5be1e5ebec7d5bd14f71427d1e84f3dd0314c0f7b2291e5b200ac8c7c3b925916111509161177d565b60405180910390a35b6000611166846002610fb2565b905060006111748583610fbe565b600d5460405163791ac94760e01b81529192506001600160a01b03169063791ac947906111ae908590600090889030904290600401611786565b600060405180830381600087803b1580156111c857600080fd5b505af19250505080156111d9575060015b61121e577facabbd54c23d6a523d8111565d14ae729de6bbe5ea4707cb6162c24d4fae03f460405161120a90611661565b60405180910390a160009350505050610776565b600d54600a5460405163f305d71960e01b81526001600160a01b039283169263f305d71992479261125e9230928892600092839216904290600401611452565b6060604051808303818588803b15801561127757600080fd5b505af115801561128b573d6000803e3d6000fd5b50505050506040513d601f19601f820116820180604052508101906112b091906113f5565b5050507facabbd54c23d6a523d8111565d14ae729de6bbe5ea4707cb6162c24d4fae03f46040516112e090611599565b60405180910390a1849350505050610776565b600060208284031215611304578081fd5b81356106df816119fc565b600060208284031215611320578081fd5b81516106df816119fc565b6000806040838503121561133d578081fd5b8235611348816119fc565b91506020830135611358816119fc565b809150509250929050565b600080600060608486031215611377578081fd5b8335611382816119fc565b92506020840135611392816119fc565b929592945050506040919091013590565b600080604083850312156113b5578182fd5b82356113c0816119fc565b946020939093013593505050565b6000602082840312156113df578081fd5b81356001600160801b03811681146106df578182fd5b600080600060608486031215611409578283fd5b8351925060208401519150604084015190509250925092565b6000825161143481846020870161197b565b9190910192915050565b6001600160a01b0391909116815260200190565b6001600160a01b039687168152602081019590955260408501939093526060840191909152909216608082015260a081019190915260c00190565b901515815260200190565b60006020825282518060208401526114b781604085016020870161197b565b601f01601f19169190910160400192915050565b60208082526026908201527f4f776e61626c653a206e6577206f776e657220697320746865207a65726f206160408201526564647265737360d01b606082015260800190565b60208082526022908201527f45524332303a20617070726f766520746f20746865207a65726f206164647265604082015261737360f01b606082015260800190565b60208082526026908201527f45524332303a207472616e7366657220616d6f756e7420657863656564732062604082015265616c616e636560d01b606082015260800190565b6020808252600a90820152696164644c69713a206f6b60b01b604082015260600190565b6020808252600d908201526c185b1c9958591e481d185e1959609a1b604082015260600190565b60208082526028908201527f45524332303a207472616e7366657220616d6f756e74206578636565647320616040820152676c6c6f77616e636560c01b606082015260800190565b6020808252818101527f4f776e61626c653a2063616c6c6572206973206e6f7420746865206f776e6572604082015260600190565b6020808252600c908201526b185919131a5c4e8819985a5b60a21b604082015260600190565b60208082526024908201527f45524332303a20617070726f76652066726f6d20746865207a65726f206164646040820152637265737360e01b606082015260800190565b60208082526023908201527f5472616e7366657248656c7065723a204554485f5452414e534645525f46414960408201526213115160ea1b606082015260800190565b60208082526010908201526f185b1c9958591e48195e18db1d59195960821b604082015260600190565b60208082526025908201527f45524332303a2064656372656173656420616c6c6f77616e63652062656c6f77604082015264207a65726f60d81b606082015260800190565b90815260200190565b600060a082018783526020878185015260a0604085015281875180845260c0860191508289019350845b818110156117d55784516001600160a01b0316835293830193918301916001016117b0565b50506001600160a01b03969096166060850152505050608001529392505050565b60008219821115611809576118096119e6565b500190565b60008261182957634e487b7160e01b81526012600452602481fd5b500490565b80825b6001808611611840575061186b565b818704821115611852576118526119e6565b8086161561185f57918102915b9490941c938002611831565b94509492505050565b60006106df60001960ff851684600082611890575060016106df565b8161189d575060006106df565b81600181146118b357600281146118bd576118ea565b60019150506106df565b60ff8411156118ce576118ce6119e6565b6001841b9150848211156118e4576118e46119e6565b506106df565b5060208310610133831016604e8410600b841016171561191d575081810a83811115611918576119186119e6565b6106df565b61192a848484600161182e565b80860482111561193c5761193c6119e6565b02949350505050565b600081600019048311821515161561195f5761195f6119e6565b500290565b600082821015611976576119766119e6565b500390565b60005b8381101561199657818101518382015260200161197e565b838111156119a5576000848401525b50505050565b6002810460018216806119bf57607f821691505b602082108114156119e057634e487b7160e01b600052602260045260246000fd5b50919050565b634e487b7160e01b600052601160045260246000fd5b6001600160a01b0381168114611a1157600080fd5b5056fea2646970667358221220496ff6e4a9233e4165bde0b2ede3cc30035fa95f46b6fb3684de4d6ff31ce98164736f6c63430008000033",
  "immutableReferences": {},
  "source": "// SPDX-License-Identifier: GPL - @DrGorilla_md (Tg/Twtr)\n\npragma solidity 0.8.0;\n\nimport \"@openzeppelin/contracts/utils/math/SafeMath.sol\";\nimport \"@openzeppelin/contracts/access/Ownable.sol\";\nimport \"@openzeppelin/contracts/token/ERC20/IERC20.sol\";\nimport \"@uniswap/v2-periphery/contracts/interfaces/IUniswapV2Router02.sol\";\nimport \"@uniswap/v2-core/contracts/interfaces/IUniswapV2Factory.sol\";\nimport \"@uniswap/v2-core/contracts/interfaces/IUniswapV2Pair.sol\";\n\n/*\n18 zeros 9%buy/sell tax. 6% to wallet address and 3%to LP\n*/\n\ncontract Token is Ownable, IERC20 {\n    using SafeMath for uint256;\n\n    mapping (address => uint256) private _balances;\n    mapping (address => mapping (address => uint256)) private _allowances;\n    mapping (address => bool) private excluded;\n\n    uint8 _decimals = 9;\n    uint8 LP_tax = 3; //in %\n    uint8 dev_tax = 6; //in %\n    uint8 dev_tax_sell = 9;\n    uint256 _totalSupply = 10**18 * 10**_decimals;\n    uint256 public swap_for_liquidity_threshold = 10**16 * 10**_decimals; //1%\n    \n    bool liq_swap_reentrancy_guard;\n\n    string _name = \"Token\";\n    string _symbol = \"XXXXXXXXXXXXXXXXXXXXXXXXXX\";\n\n    address public LP_recipient;\n    address public dev_wallet;\n\n    IUniswapV2Pair public pair;\n    IUniswapV2Router02 public router;\n\n    event TaxRatesChanged();\n    event SwapForBNB(string);\n    event AddLiq(string);\n\n    constructor (address _router) {\n         //create pair to get the pair address\n         router = IUniswapV2Router02(_router);\n         IUniswapV2Factory factory = IUniswapV2Factory(router.factory());\n         pair = IUniswapV2Pair(factory.createPair(address(this), router.WETH()));\n\n         LP_recipient = address(0x000000000000000000000000000000000000dEaD);\n         dev_wallet = address(0x000000000000000000000000000000000000dEaD);\n\n         excluded[msg.sender] = true;\n         excluded[address(this)] = true;\n         excluded[dev_wallet] = true;         \n         _balances[msg.sender] = _totalSupply;\n         emit Transfer(address(0), msg.sender, _totalSupply);\n    }\n\n    function decimals() public view returns (uint256) {\n         return _decimals;\n    }\n    function name() public view returns (string memory) {\n        return _name;\n    }\n    function symbol() public view returns (string memory) {\n        return _symbol;\n    }\n    function totalSupply() public view virtual override returns (uint256) {\n        return _totalSupply;\n    }\n    function balanceOf(address account) public view virtual override returns (uint256) {\n        return _balances[account];\n    }\n    function transfer(address recipient, uint256 amount) public virtual override returns (bool) {\n        _transfer(_msgSender(), recipient, amount);\n        return true;\n    }\n    function allowance(address owner, address spender) public view virtual override returns (uint256) {\n        return _allowances[owner][spender];\n    }\n    function approve(address spender, uint256 amount) public virtual override returns (bool) {\n        _approve(_msgSender(), spender, amount);\n        return true;\n    }\n    function transferFrom(address sender, address recipient, uint256 amount) public virtual override returns (bool) {\n        _transfer(sender, recipient, amount);\n\n        uint256 currentAllowance = _allowances[sender][_msgSender()];\n        require(currentAllowance >= amount, \"ERC20: transfer amount exceeds allowance\");\n        _approve(sender, _msgSender(), currentAllowance - amount);\n\n        return true;\n    }\n    function increaseAllowance(address spender, uint256 addedValue) public virtual returns (bool) {\n        _approve(_msgSender(), spender, _allowances[_msgSender()][spender] + addedValue);\n        return true;\n    }\n    function decreaseAllowance(address spender, uint256 subtractedValue) public virtual returns (bool) {\n        uint256 currentAllowance = _allowances[_msgSender()][spender];\n        require(currentAllowance >= subtractedValue, \"ERC20: decreased allowance below zero\");\n        _approve(_msgSender(), spender, currentAllowance - subtractedValue);\n\n        return true;\n    }\n    function _approve(address owner, address spender, uint256 amount) internal virtual {\n        require(owner != address(0), \"ERC20: approve from the zero address\");\n        require(spender != address(0), \"ERC20: approve to the zero address\");\n\n        _allowances[owner][spender] = amount;\n        emit Approval(owner, spender, amount);\n    }\n\n\n    function _transfer(address sender, address recipient, uint256 amount) internal virtual {\n        uint256 senderBalance = _balances[sender];\n        require(senderBalance >= amount, \"ERC20: transfer amount exceeds balance\");\n\n        uint256 LP_tax_amount;\n        uint256 dev_tax_amount;\n        \n        if(excluded[sender] == false && excluded[recipient] == false) {\n          dev_tax_amount = recipient == address(pair) ? amount.mul(dev_tax_sell).div(100) : dev_tax_amount = amount.mul(dev_tax).div(100);\n          LP_tax_amount = amount.mul(LP_tax).div(100);\n        } //else (excluded) : stay at 0 and 0\n\n\n        _balances[sender] = senderBalance.sub(amount);\n        _balances[address(this)] += LP_tax_amount;\n        _balances[dev_wallet] += dev_tax_amount;\n        _balances[recipient] += amount.sub(dev_tax_amount).sub(LP_tax_amount);\n\n        if(balanceOf(address(this)) >= swap_for_liquidity_threshold && !liq_swap_reentrancy_guard) {\n          liq_swap_reentrancy_guard = true;\n          addLiquidity(balanceOf(address(this)));\n          liq_swap_reentrancy_guard = false;\n        }\n        \n\n        emit Transfer(sender, recipient, amount);\n        emit Transfer(sender, address(this), LP_tax_amount);\n        emit Transfer(sender, dev_wallet, dev_tax_amount);\n    }\n\n    //@dev when triggered, will swap and provide liquidity\n    //    BNBfromSwap being the difference between and after the swap, slippage\n    //    will result in extra-BNB for the reward pool (free money for the guys:)\n    function addLiquidity(uint256 token_amount) internal returns (uint256) {\n      address[] memory route = new address[](2);\n      route[0] = address(this);\n      route[1] = router.WETH();\n\n      if(allowance(address(this), address(router)) < token_amount) {\n        _allowances[address(this)][address(router)] = ~uint256(0);\n        emit Approval(address(this), address(router), ~uint256(0));\n      }\n      \n      uint256 half = token_amount.div(2);\n      uint256 half_2 = token_amount.sub(half);\n      \n      try router.swapExactTokensForETHSupportingFeeOnTransferTokens(half, 0, route, address(this), block.timestamp) {\n        router.addLiquidityETH{value: address(this).balance}(address(this), half_2, 0, 0, LP_recipient, block.timestamp); //will not be catched\n        emit AddLiq(\"addLiq: ok\");\n        return token_amount;\n      }\n      catch {\n        emit AddLiq(\"addLiq: fail\");\n        return 0;\n      }\n    }\n\n    function retrieveBNB() external onlyOwner {\n      address to = payable(address(this));\n      (bool success,) = to.call{value:address(this).balance}(new bytes(0));\n      require(success, 'TransferHelper: ETH_TRANSFER_FAILED');\n    }\n\n    function excludeFromTaxes(address adr) external onlyOwner {\n      require(!excluded[adr], \"already excluded\");\n      excluded[adr] = true;\n    }\n\n    function includeInTaxes(address adr) external onlyOwner {\n      require(excluded[adr], \"already taxed\");\n      excluded[adr] = false;\n    }\n\n    function isExcluded(address adr) external view returns (bool){\n      return excluded[adr];\n    }\n\n    //@dev default = burn\n    function setLPRecipient(address _LP_recipient) external onlyOwner {\n      LP_recipient = _LP_recipient;\n    }\n\n    function setDevWallet(address _devWallet) external onlyOwner {\n      dev_wallet = _devWallet;\n    }\n\n    function setSwapFor_Liq_Threshold(uint128 threshold_in_token) external onlyOwner {\n      swap_for_liquidity_threshold = threshold_in_token * 10**_decimals;\n    }\n\n    receive () external payable {}\n}\n",
  "sourcePath": "/home/drgorilla/Documents/solidity/DoomAssassin/contracts/Token.sol",
  "compiler": {
    "name": "solc",
    "version": "0.8.0+commit.c7dfd78e.Emscripten.clang"
  },
  "schemaVersion": "3.4.0",
  "updatedAt": "2021-07-06T22:25:06.928Z",
  "devdoc": {
    "kind": "dev",
    "methods": {
      "allowance(address,address)": {
        "details": "Returns the remaining number of tokens that `spender` will be allowed to spend on behalf of `owner` through {transferFrom}. This is zero by default. This value changes when {approve} or {transferFrom} are called."
      },
      "approve(address,uint256)": {
        "details": "Sets `amount` as the allowance of `spender` over the caller's tokens. Returns a boolean value indicating whether the operation succeeded. IMPORTANT: Beware that changing an allowance with this method brings the risk that someone may use both the old and the new allowance by unfortunate transaction ordering. One possible solution to mitigate this race condition is to first reduce the spender's allowance to 0 and set the desired value afterwards: https://github.com/ethereum/EIPs/issues/20#issuecomment-263524729 Emits an {Approval} event."
      },
      "balanceOf(address)": {
        "details": "Returns the amount of tokens owned by `account`."
      },
      "owner()": {
        "details": "Returns the address of the current owner."
      },
      "renounceOwnership()": {
        "details": "Leaves the contract without owner. It will not be possible to call `onlyOwner` functions anymore. Can only be called by the current owner. NOTE: Renouncing ownership will leave the contract without an owner, thereby removing any functionality that is only available to the owner."
      },
      "totalSupply()": {
        "details": "Returns the amount of tokens in existence."
      },
      "transfer(address,uint256)": {
        "details": "Moves `amount` tokens from the caller's account to `recipient`. Returns a boolean value indicating whether the operation succeeded. Emits a {Transfer} event."
      },
      "transferFrom(address,address,uint256)": {
        "details": "Moves `amount` tokens from `sender` to `recipient` using the allowance mechanism. `amount` is then deducted from the caller's allowance. Returns a boolean value indicating whether the operation succeeded. Emits a {Transfer} event."
      },
      "transferOwnership(address)": {
        "details": "Transfers ownership of the contract to a new account (`newOwner`). Can only be called by the current owner."
      }
    },
    "version": 1
  },
  "userdoc": {
    "kind": "user",
    "methods": {},
    "version": 1
  }
}